S01F0000456C656374726F6E6963566F74696E674D616368696E652E73726563D1
S11300000C942A000C9447000C9447000C9447006D
S11300100C9447000C9447000C9447000C94470040
S11300200C9447000C9447000C9447000C94470030
S11300300C9447000C9447000C9447000C94470020
S11300400C9447000C9447000C9447000C94470010
S11300500C94470011241FBECFE5D8E0DEBFCDBF0E
S113006010E0A0E6B0E0E4E6FBE002C005900D92EB
S1130070A437B107D9F710E0A4E7B0E001C01D929E
S1130080A437B107E1F70E94B9030C94B0050C94AE
S11300900000843409F471C0853448F4823499F141
S11300A0833408F04DC0813409F083C00FC0823618
S11300B051F1833620F4813609F07BC007C08336C2
S11300C009F43EC0843609F074C057C0413069F465
S11300D02AB381E090E0AC0102C0440F551F6A9539
S11300E0E2F7BA01622B6ABB08952AB381E090E07B
S11300F0AC0102C0440F551F6A95E2F7BA0160953E
S113010062236ABB0895413069F427B381E090E02B
S1130110AC0102C0440F551F6A95E2F7BA01622B85
S113012067BB089527B381E090E0AC0102C0440F9F
S1130130551F6A95E2F7BA016095622367BB08957B
S1130140413069F424B381E090E0AC0102C0440F73
S1130150551F6A95E2F7BA01622B64BB089524B374
S113016081E090E0AC0102C0440F551F6A95E2F7AC
S1130170BA016095622364BB0895413069F421B3E8
S113018081E090E0AC0102C0440F551F6A95E2F78C
S1130190BA01622B61BB089521B381E090E0AC0108
S11301A002C0440F551F6A95E2F7BA0160956223B5
S11301B061BB0895843409F471C0853448F48234F1
S11301C099F1833408F04DC0813409F083C00FC025
S11301D0823651F1833620F4813609F07BC007C0A2
S11301E0833609F43EC0843609F074C057C04130E8
S11301F069F42BB381E090E0AC0102C0440F551FB9
S11302006A95E2F7BA01622B6BBB08952BB381E0C8
S113021090E0AC0102C0440F551F6A95E2F7BA01A1
S1130220609562236BBB0895413069F428B381E083
S113023090E0AC0102C0440F551F6A95E2F7BA0181
S1130240622B68BB089528B381E090E0AC0102C042
S1130250440F551F6A95E2F7BA016095622368BBA3
S11302600895413069F425B381E090E0AC0102C007
S1130270440F551F6A95E2F7BA01622B65BB0895D6
S113028025B381E090E0AC0102C0440F551F6A958C
S1130290E2F7BA016095622365BB0895413069F4C1
S11302A022B381E090E0AC0102C0440F551F6A956F
S11302B0E2F7BA01622B62BB089522B381E090E0B9
S11302C0AC0102C0440F551F6A95E2F7BA0160956C
S11302D0622362BB0895843409F43DC0853440F43C
S11302E08234F9F0833450F5813409F040C00CC0F5
S11302F08236B9F0833618F48136C9F505C08336E1
S1130300E9F08436A1F527C02BB381E090E0AC017D
S113031002C0440F551F6A95E2F7BA0162276BBB0E
S1130320089528B381E090E0AC0102C0440F551F4A
S11303306A95E2F7BA01622768BB089525B381E0A4
S113034090E0AC0102C0440F551F6A95E2F7BA0170
S1130350622765BB089522B381E090E0AC0102C03E
S1130360440F551F6A95E2F7BA01622762BB0895EC
S1130370843409F44EC0853440F4823431F183343A
S1130380B0F5813409F057C00EC08236F1F08336DF
S113039020F4813609F04FC006C0833641F184361B
S11303A009F049C036C029B381E090E0062E02C0AE
S11303B0880F991F0A94E2F730E08223932302C046
S11303C0959587956A95E2F7089526B381E090E0C4
S11303D0062E02C0880F991F0A94E2F730E08223A8
S11303E0932302C0959587956A95E2F7089523B300
S11303F081E090E0062E02C0880F991F0A94E2F76C
S113040030E08223932302C0959587956A95E2F79D
S1130410089520B381E090E0062E02C0880F991F52
S11304200A94E2F730E08223932302C095958795DE
S11304306A95E2F7089508958434D9F0853438F440
S1130440823499F0833498F48134A1F40CC0823658
S113045061F0833618F4813669F405C0833639F0C7
S1130460843641F406C06ABB089567BB089564BB33
S1130470089561BB08958434D9F0853438F4823406
S113048099F0833498F48134A1F40CC0823661F07D
S1130490833618F4813669F405C0833639F084361E
S11304A041F406C06BBB089568BB089565BB08950D
S11304B062BB0895843409F1853438F48234A9F098
S11304C08334B8F48134E1F40CC0823671F083369D
S11304D018F48136A9F405C0833659F0843681F4C2
S11304E00CC08BB380958BBB089588B3809588BB73
S11304F0089585B3809585BB089582B3809582BBAA
S113050008958434D9F0853438F4823499F08334EE
S113051098F48134A9F40CC0823661F0833618F45F
S1130520813671F405C0833639F0843649F406C047
S113053089B3089586B3089583B3089580B3089565
S113054008956295607F843451F1853438F482349F
S1130550C1F08334E8F4813441F50CC0823689F06B
S1130560833618F4813609F505C0833689F084365C
S1130570E1F415C08BB38F708BBB8BB3682B6BBB53
S1130580089588B38F7088BB88B3682B68BB0895BF
S113059085B38F7085BB85B3682B65BB089582B323
S11305A08F7082BB82B3682B62BB0895843451F18F
S11305B0853438F48234C1F08334E8F4813441F56D
S11305C00CC0823689F0833618F4813609F505C0EB
S11305D0833689F08436E1F415C08BB3807F8BBBFE
S11305E08BB3682B6BBB089588B3807F88BB88B3BB
S11305F0682B68BB089585B3807F85BB85B3682B62
S113060065BB089582B3807F82BB82B3682B62BBD3
S11306100895843409F471C0853448F4823499F11E
S1130620833408F04DC0813409F083C00FC0823692
S113063051F1833620F4813609F07BC007C083363C
S113064009F43EC0843609F074C057C0413069F4DF
S11306502BB381E090E0AC0102C0440F551F6A95B2
S1130660E2F7BA01622B6BBB08952BB381E090E0F3
S1130670AC0102C0440F551F6A95E2F7BA016095B8
S113068062236BBB0895413069F428B381E090E0A4
S1130690AC0102C0440F551F6A95E2F7BA01622B00
S11306A068BB089528B381E090E0AC0102C0440F18
S11306B0551F6A95E2F7BA016095622368BB0895F5
S11306C0413069F425B381E090E0AC0102C0440FED
S11306D0551F6A95E2F7BA01622B65BB089525B3ED
S11306E081E090E0AC0102C0440F551F6A95E2F727
S11306F0BA016095622365BB0895413069F422B361
S113070081E090E0AC0102C0440F551F6A95E2F706
S1130710BA01622B62BB089522B381E090E0AC0180
S113072002C0440F551F6A95E2F7BA01609562232F
S113073062BB08950E948B0580E690E00E947C05D0
S113074082E061E00E94950585E690E00E947C05C8
S113075081E068E00E9495058AE690E00E947C05AD
S113076082E068E00E9495058FE690E00E947C0597
S1130770089581E460E00E94A90581E461E00E949B
S1130780A90581E462E00E94A90581E463E00E9476
S1130790A90581E464E00E94A9050E94E8048CE0B4
S11307A00E94BC040E949A03D0E30F2EF0E3EF2EC4
S11307B0F02D0F2EF0E3DF2EF02D0F2EF0E3CF2ED1
S11307C0F02DC0E310E300E30F2EF0E3FF2EF02D35
S11307D081E464E00E94AD058130B1F40E949A0383
S11307E0D0E30F2EF0E3EF2EF02D0F2EF0E3DF2EEB
S11307F0F02D0F2EF0E3CF2EF02DC0E310E300E335
S11308000F2EF0E3FF2EF02D81E460E00E94AD0591
S1130810813011F563E00E9495058F2D90E0C0971B
S11308208930910544F4F3948C2D0E9456058F2D44
S11308300E9456050BC0C3948C2D0E94560580E37C
S11308400E9456050F2EF0E3FF2EF02D83E294EF65
S11308500197F1F700C0000081E461E00E94AD055A
S1130860813001F582E063E00E949505802F90E0DD
S1130870C0978930910544F40F5F8D2D0E94560571
S1130880802F0E94560508C0D3948D2D0E945605D2
S113089080E30E94560500E383E294EF0197F1F7A9
S11308A000C0000081E462E00E94AD058130F9F4EB
S11308B06AE00E949505812F90E0C09789309105E8
S11308C044F41F5F8E2D0E945605812F0E94560509
S11308D008C0E3948E2D0E94560580E30E945605BD
S11308E010E383E294EF0197F1F700C0000081E484
S11308F063E00E94AD05813009F06ACF82E06AE0CE
S11309000E9495058C2F90E0C0978930910544F49E
S1130910CF5F8D2F0E9456058C2F0E94560508C06C
S1130920DF5F8D2F0E94560580E30E945605C0E3C9
S113093083E294EF0197F1F700C0000049CF84E40B
S113094090E060E070E041E050E00E94DA0083EF64
S113095091E00197F1F700C0000084E490E060E0CA
S113096070E040E050E00E94DA0083EF91E00197EC
S1130970F1F700C000000895CF93C82F682F629547
S11309806F7083E490E070E00E94A10284E490E040
S113099062E070E040E050E00E94DA000E949F04B0
S11309A083E490E06C2F70E00E94A10284E490E064
S11309B062E070E040E050E00E94DA000E949F0490
S11309C089EF90E00197F1F700C00000CF910895FE
S11309D083E490E064E070E041E050E00E9449006C
S11309E083E490E065E070E041E050E00E9449005B
S11309F083E490E066E070E041E050E00E9449004A
S1130A0083E490E067E070E041E050E00E94490038
S1130A1084E490E060E070E041E050E00E9449002E
S1130A2084E490E062E070E041E050E00E9449001C
S1130A3084E490E061E070E041E050E00E9449000D
S1130A4084E490E061E070E040E050E00E94DA006D
S1130A5082E00E94BC0483EC99E00197F1F700C0A6
S1130A60000088E20E94BC0489EF90E00197F1F74E
S1130A7000C000008EE00E94BC0489EF90E0019762
S1130A80F1F700C0000081E00E94BC0483EC99E00F
S1130A900197F1F700C0000086E00E94BC0489EFD2
S1130AA090E00197F1F700C000000895CF93C82F9C
S1130AB0682F62956F7083E490E070E00E94A10259
S1130AC084E490E062E070E041E050E00E94DA00EB
S1130AD00E949F0483E490E06C2F70E00E94A102C6
S1130AE084E490E062E070E041E050E00E94DA00CB
S1130AF00E949F04CF910895CF93DF93EC018881E6
S1130B00882331F021960E94560589918823D9F7CC
S1130B10DF91CF91089581E00E94BC0483EC99E0B9
S1130B200197F1F700C000000895813019F4862F71
S1130B30815806C0823019F4862F815401C080E8A0
S1130B400E94BC0489EF90E00197F1F700C0000017
S1130B50089540E00E94490008950E94B801089554
S1070B60F894FFCF33
S1130B64413D303000423D303000433D303000449C
S1070B743D303000DC
S9030000FC
