S01F0000456C656374726F6E6963566F74696E674D616368696E652E73726563D1
S11300000C942A000C9447000C9447000C9447006D
S11300100C9447000C9447000C9447000C94470040
S11300200C9447000C9447000C9447000C94470030
S11300300C9447000C9447000C9447000C94470020
S11300400C9447000C9447000C9447000C94470010
S11300500C94470011241FBECFE5D8E0DEBFCDBF0E
S113006010E0A0E6B0E0E4E2FBE002C005900D92EF
S1130070A037B107D9F710E0A0E7B0E001C01D92A6
S1130080A037B107E1F70E94B9030C9490050C94D2
S11300900000843409F471C0853448F4823499F141
S11300A0833408F04DC0813409F083C00FC0823618
S11300B051F1833620F4813609F07BC007C08336C2
S11300C009F43EC0843609F074C057C0413069F465
S11300D02AB381E090E0AC0102C0440F551F6A9539
S11300E0E2F7BA01622B6ABB08952AB381E090E07B
S11300F0AC0102C0440F551F6A95E2F7BA0160953E
S113010062236ABB0895413069F427B381E090E02B
S1130110AC0102C0440F551F6A95E2F7BA01622B85
S113012067BB089527B381E090E0AC0102C0440F9F
S1130130551F6A95E2F7BA016095622367BB08957B
S1130140413069F424B381E090E0AC0102C0440F73
S1130150551F6A95E2F7BA01622B64BB089524B374
S113016081E090E0AC0102C0440F551F6A95E2F7AC
S1130170BA016095622364BB0895413069F421B3E8
S113018081E090E0AC0102C0440F551F6A95E2F78C
S1130190BA01622B61BB089521B381E090E0AC0108
S11301A002C0440F551F6A95E2F7BA0160956223B5
S11301B061BB0895843409F471C0853448F48234F1
S11301C099F1833408F04DC0813409F083C00FC025
S11301D0823651F1833620F4813609F07BC007C0A2
S11301E0833609F43EC0843609F074C057C04130E8
S11301F069F42BB381E090E0AC0102C0440F551FB9
S11302006A95E2F7BA01622B6BBB08952BB381E0C8
S113021090E0AC0102C0440F551F6A95E2F7BA01A1
S1130220609562236BBB0895413069F428B381E083
S113023090E0AC0102C0440F551F6A95E2F7BA0181
S1130240622B68BB089528B381E090E0AC0102C042
S1130250440F551F6A95E2F7BA016095622368BBA3
S11302600895413069F425B381E090E0AC0102C007
S1130270440F551F6A95E2F7BA01622B65BB0895D6
S113028025B381E090E0AC0102C0440F551F6A958C
S1130290E2F7BA016095622365BB0895413069F4C1
S11302A022B381E090E0AC0102C0440F551F6A956F
S11302B0E2F7BA01622B62BB089522B381E090E0B9
S11302C0AC0102C0440F551F6A95E2F7BA0160956C
S11302D0622362BB0895843409F43DC0853440F43C
S11302E08234F9F0833450F5813409F040C00CC0F5
S11302F08236B9F0833618F48136C9F505C08336E1
S1130300E9F08436A1F527C02BB381E090E0AC017D
S113031002C0440F551F6A95E2F7BA0162276BBB0E
S1130320089528B381E090E0AC0102C0440F551F4A
S11303306A95E2F7BA01622768BB089525B381E0A4
S113034090E0AC0102C0440F551F6A95E2F7BA0170
S1130350622765BB089522B381E090E0AC0102C03E
S1130360440F551F6A95E2F7BA01622762BB0895EC
S1130370843409F44EC0853440F4823431F183343A
S1130380B0F5813409F057C00EC08236F1F08336DF
S113039020F4813609F04FC006C0833641F184361B
S11303A009F049C036C029B381E090E0062E02C0AE
S11303B0880F991F0A94E2F730E08223932302C046
S11303C0959587956A95E2F7089526B381E090E0C4
S11303D0062E02C0880F991F0A94E2F730E08223A8
S11303E0932302C0959587956A95E2F7089523B300
S11303F081E090E0062E02C0880F991F0A94E2F76C
S113040030E08223932302C0959587956A95E2F79D
S1130410089520B381E090E0062E02C0880F991F52
S11304200A94E2F730E08223932302C095958795DE
S11304306A95E2F7089508958434D9F0853438F440
S1130440823499F0833498F48134A1F40CC0823658
S113045061F0833618F4813669F405C0833639F0C7
S1130460843641F406C06ABB089567BB089564BB33
S1130470089561BB08958434D9F0853438F4823406
S113048099F0833498F48134A1F40CC0823661F07D
S1130490833618F4813669F405C0833639F084361E
S11304A041F406C06BBB089568BB089565BB08950D
S11304B062BB0895843409F1853438F48234A9F098
S11304C08334B8F48134E1F40CC0823671F083369D
S11304D018F48136A9F405C0833659F0843681F4C2
S11304E00CC08BB380958BBB089588B3809588BB73
S11304F0089585B3809585BB089582B3809582BBAA
S113050008958434D9F0853438F4823499F08334EE
S113051098F48134A9F40CC0823661F0833618F45F
S1130520813671F405C0833639F0843649F406C047
S113053089B3089586B3089583B3089580B3089565
S113054008956295607F843451F1853438F482349F
S1130550C1F08334E8F4813441F50CC0823689F06B
S1130560833618F4813609F505C0833689F084365C
S1130570E1F415C08BB38F708BBB8BB3682B6BBB53
S1130580089588B38F7088BB88B3682B68BB0895BF
S113059085B38F7085BB85B3682B65BB089582B323
S11305A08F7082BB82B3682B62BB0895843451F18F
S11305B0853438F48234C1F08334E8F4813441F56D
S11305C00CC0823689F0833618F4813609F505C0EB
S11305D0833689F08436E1F415C08BB3807F8BBBFE
S11305E08BB3682B6BBB089588B3807F88BB88B3BB
S11305F0682B68BB089585B3807F85BB85B3682B62
S113060065BB089582B3807F82BB82B3682B62BBD3
S11306100895843409F471C0853448F4823499F11E
S1130620833408F04DC0813409F083C00FC0823692
S113063051F1833620F4813609F07BC007C083363C
S113064009F43EC0843609F074C057C0413069F4DF
S11306502BB381E090E0AC0102C0440F551F6A95B2
S1130660E2F7BA01622B6BBB08952BB381E090E0F3
S1130670AC0102C0440F551F6A95E2F7BA016095B8
S113068062236BBB0895413069F428B381E090E0A4
S1130690AC0102C0440F551F6A95E2F7BA01622B00
S11306A068BB089528B381E090E0AC0102C0440F18
S11306B0551F6A95E2F7BA016095622368BB0895F5
S11306C0413069F425B381E090E0AC0102C0440FED
S11306D0551F6A95E2F7BA01622B65BB089525B3ED
S11306E081E090E0AC0102C0440F551F6A95E2F727
S11306F0BA016095622365BB0895413069F422B361
S113070081E090E0AC0102C0440F551F6A95E2F706
S1130710BA01622B62BB089522B381E090E0AC0180
S113072002C0440F551F6A95E2F7BA01609562232F
S113073062BB08950E945F0580E690E00E94500528
S113074082E061E00E94690584E690E00E94500521
S113075081E068E00E94690588E690E00E94500507
S113076082E068E00E9469058CE690E00E945005F2
S1130770089581E460E00E947D0581E461E00E94C7
S11307807D0581E462E00E947D0581E463E00E94CE
S11307907D0581E464E00E947D050E94BC048CE038
S11307A00E9490040E949A03FF2400E010E0D0E02D
S11307B0C0E00F2EFAE0DF2EF02D81E464E00E9409
S11307C08105813031F40E949A03FC2E0C2F1C2FDA
S11307D0DC2F81E46C2F0E9481058130D1F463E029
S11307E00E946905D93040F4ED2EE3948D2F8F5C7F
S11307F00E942A05DE2D0DC0DF5F8D2F6D2D0E9416
S11308008405E92E805D0E942A058E2D805D0E945C
S11308102A0581E461E00E9481058130D9F482E0F7
S113082063E00E946905193040F4E12EE394812FBE
S11308308F5C0E942A051E2D0DC01F5F812F6D2D18
S11308400E948405E92E805D0E942A058E2D805D1C
S11308500E942A0581E462E00E9481058130D1F47E
S11308606D2D0E946905093040F4E02EE394802F39
S11308708F5C0E942A050E2D0DC00F5F802F6D2DF9
S11308800E948405E92E805D0E942A058E2D805DDC
S11308900E942A0581E463E00E9481058130E1F42D
S11308A082E06D2D0E94690588E08F1540F0EF2CE1
S11308B0E3948F2D8F5C0E942A05FE2C0DC0F394C7
S11308C08F2D6D2D0E948405E92E805D0E942A05DE
S11308D08E2D805D0E942A058FE493EC0197F1F739
S11308E000C000006ACF84E490E060E070E041E082
S11308F050E00E94DA0083EF91E00197F1F700C025
S1130900000084E490E060E070E040E050E00E9489
S1130910DA0083EF91E00197F1F700C00000089539
S1130920CF93C82F682F62956F7083E490E070E0D6
S11309300E94A10284E490E062E070E040E050E0B4
S11309400E94DA000E94730483E490E06C2F70E04C
S11309500E94A10284E490E062E070E040E050E094
S11309600E94DA000E94730489EF90E00197F1F786
S113097000C00000CF91089583E490E064E070E04B
S113098041E050E00E94490083E490E065E070E0BB
S113099041E050E00E94490083E490E066E070E0AA
S11309A041E050E00E94490083E490E067E070E099
S11309B041E050E00E94490084E490E060E070E08F
S11309C041E050E00E94490084E490E062E070E07D
S11309D041E050E00E94490084E490E061E070E06E
S11309E041E050E00E94490084E490E061E070E05E
S11309F040E050E00E94DA0082E00E94900483EC20
S1130A0099E00197F1F700C0000088E20E94900489
S1130A1089EF90E00197F1F700C000008EE00E949A
S1130A20900489EF90E00197F1F700C0000081E0A5
S1130A300E94900483EC99E00197F1F700C0000054
S1130A4086E00E94900489EF90E00197F1F700C0DE
S1130A5000000895CF93C82F682F62956F7083E4C8
S1130A6090E070E00E94A10284E490E062E070E013
S1130A7041E050E00E94DA000E94730483E490E0B5
S1130A806C2F70E00E94A10284E490E062E070E0C8
S1130A9041E050E00E94DA000E947304CF9108956F
S1130AA0CF93DF93EC018881882331F021960E9453
S1130AB02A0589918823D9F7DF91CF91089581E0A0
S1130AC00E94900483EC99E00197F1F700C00000C4
S1130AD00895813019F4862F815806C0823019F4A4
S1130AE0862F815401C080E80E94900489EF90E031
S1130AF00197F1F700C00000089540E00E9449000A
S1130B0008950E94B8010895991B79E004C0991FC3
S1130B10961708F0961B881F7A95C9F78095089553
S1070B20F894FFCF73
S1130B24413D3000423D3000433D3000443D3000FF
S9030000FC
